CUST001JOHN            SMITH           20250215095547+00012750.00USD
CUST002MARIA           GARCIA          20250215114233-00000125.75EUR
CUST003ROBERT          JOHNSON         20250215133012+00002500.00USD
CUST004SOPHIA          LEE             20250216082209-00000050.25GBP
CUST005MICHAEL         WILLIAMS        20250216095623+00000950.75USD
CUST006EMMA            BROWN           20250216124508+00001275.50CAD
CUST007JAMES           TAYLOR          20250217103355-00000875.00USD
CUST008OLIVIA          WILSON          20250217161244+00000225.25USD
CUST009WILLIAM         MARTINEZ        20250218092117-00005000.00JPY
CUST010ELIZABETH       ANDERSON        20250218143009+00000450.50USD